:100000000C9434000C9451000C9451000C94510049
:100010000C9451000C9451000C9451000C9451001C
:100020000C9451000C9451000C9451000C9451000C
:100030000C9451000C9451000C9451000C945100FC
:100040000C9451000C9451000C9451000C945100EC
:100050000C9451000C9451000C9451000C945100DC
:100060000C9451000C94510011241FBECFEFD8E026
:10007000DEBFCDBF11E0A0E0B1E0E0E5F4E102C0F9
:1000800005900D92A235B107D9F721E0A2E5B1E0C4
:1000900001C01D92A939B207E1F70E949C060C9499
:1000A000260A0C9400001092C50087E68093C400D5
:1000B000E0ECF0E080818D7F808386E08093C20059
:1000C00088E18093C1000895CF93C82F8A3019F436
:1000D0008DE00E9464008091C00085FFFCCFC0933A
:1000E000C600CF9108958091C00087FFFCCF80911A
:1000F000C6000895FF920F931F93CF93DF93C82FED
:10010000D42F152F062FF72E87FF09C040E050E0AF
:10011000BA0187E70E947A00823010F5CF770E94FB
:100120005E068C2F0E9463068F2D0E946306802F2F
:100130000E946306812F0E9463068D2F0E94630632
:1001400085E9C03421F087E8C83409F081E00E94D5
:100150006306CAE00E94620687FF02C0C150D1F761
:10016000DF91CF911F910F91FF900895CF92DF9271
:10017000EF92FF920F931F93CF93DF9300D000D0A5
:10018000CDB7DEB70E94570684E6EFE8F1E031977D
:10019000F1F700C000008150C1F71AE00E9461062B
:1001A0001150E1F740E050E0BA0180E40E947A008B
:1001B000182F813009F04DC04AEA51E060E070E04C
:1001C00088E40E947A00813009F058C0CE0101967F
:1001D0007C016E0195E0C90ED11C87010E94620668
:1001E000F80181938F01CE16DF06C1F78B81813034
:1001F00081F58C818A3A69F590E1C92E97E2D92E72
:1002000040E050E060E070E489EE0E947A008111E5
:1002100016C040E050E0BA018AE70E947A008111DE
:1002200018C00E946206F70181937F010E171F0715
:10023000C1F7898114E086FF0DC01CE00BC08FE878
:1002400091E00197F1F700C0000091E0C91AD108D0
:10025000B9F610E0109352010E94610681E011117D
:1002600080E00F900F900F900F90DF91CF911F9132
:100270000F91FF90EF90DF90CF90089540E050E015
:10028000BA0189EE0E947A0001E4823010F412E093
:1002900009EE80E1E82E87E2F82E40E050E0BA0156
:1002A000802F0E947A0081110AC040E052E060E095
:1002B00070E080E50E947A008111CBCFCBCF8FE830
:1002C00091E00197F1F700C0000091E0E91AF10810
:1002D00021F7BFCFCF92DF92EF92FF920F931F9340
:1002E000CF93DF936C0179018091520183FD07C0A8
:1002F00089E0440F551F661F771F8A95D1F781E566
:100300000E947A00811108C0C0E4DCE90E94620604
:100310008F3F29F42197D1F7C1E0D0E022C08E3F72
:10032000D9F7C2E0D2E0C01BD10BCE19DF09E1142E
:10033000F10431F00E94620681E0E81AF108F7CF7B
:1003400076010C0D1D1D0E946206F70181937F014D
:100350000E171F07C1F70E9462062197E1F7D0E050
:10036000C0E00E946106CE01DF91CF911F910F91F5
:10037000FF90EF90DF90CF9008950F931F93E0913F
:100380005301F09154019B01AC0122503109410904
:10039000510986819781A085B1850297A109B1098C
:1003A000281739074A075B0778F4A281B0E00E945A
:1003B00018070289138924893589600F711F821FEC
:1003C000931F1F910F91089560E070E0CB01F9CF6A
:1003D0000F931F93CF93DF93EC01E0915301F091C2
:1003E0005401198218826C817D818E819F816130D8
:1003F00071058105910581F106811781208531857F
:10040000601771078207930738F56115710581053B
:10041000910539F42081233021F466857785808920
:100420009189688779878A879B876115710581051E
:10043000910569F00E94BD016C877D878E879F873B
:1004400090E080E0DF91CF911F910F910895668534
:10045000778580899189F0CF81E090E0F3CFCF92CA
:10046000DF92EF92FF920F931F93CF93DF9300D011
:1004700000D0CDB7DEB7623071058105910528F453
:1004800061E070E080E090E055C0E0915301F091B0
:100490005401C680D780E084F1846C157D058E05FB
:1004A0009F0570F72081223041F1233049F79B01ED
:1004B0002F773327220F331F220F331FAB01BC01CD
:1004C000A7E07695679557954795AA95D1F7C28489
:1004D000D384E484F5844C0D5D1D6E1D7F1D04E006
:1004E00010E0CE0101960E946A01892B49F66981CC
:1004F0007A818B819C819F701DC09B013327220FC5
:10050000331F472F582F692F7727C284D384E48461
:10051000F5844C0D5D1D6E1D7F1D02E010E0CE01C7
:1005200001960E946A01892B09F0AACF69817A811C
:1005300090E080E00F900F900F900F90DF91CF919F
:100540001F910F91FF90EF90DF90CF900895CF9281
:10055000DF92EF92FF920F931F93CF93DF93EC0103
:100560006A017B0102E010E02EEF31E00E946A0197
:10057000892B79F58881998185359A4A61F526E339
:1005800030E0B701A601CE010E946A01892B79F4FF
:10059000888199818634914451F480E0DF91CF9134
:1005A0001F910F91FF90EF90DF90CF90089502E0A0
:1005B00010E022E530E0B701A601CE010E946A01F9
:1005C000892B29F4888199818634914431F381E023
:1005D000E5CF83E0E3CF82E0E1CF4F925F926F926D
:1005E0007F928F929F92AF92BF92EF92FF920F9362
:1005F0001F93CF93DF93CDB7DEB7A8970FB6F894CC
:10060000DEBF0FBECDBF7C0110925401109253018A
:10061000892B09F4E4C00E94B60080FDEFC040E0E1
:1006200050E0BA01CE0101960E94A702812C912CC4
:1006300054018130A1F500E110E02EEB31E040E003
:1006400050E0BA01CE0101960E946A01892BB9F0EF
:1006500081E090E0A8960FB6F894DEBF0FBECDBF44
:10066000DF91CF911F910F91FF90EF90BF90AF90CE
:100670009F908F907F906F905F904F9008958D81A5
:10068000811103C087E090E0E5CF89849A84AB8430
:10069000BC84B501A401CE0101960E94A70283305B
:1006A000B9F28111EFCF04E210E02DE030E0B501A6
:1006B000A401CE0101960E946A01892B49F62A8580
:1006C0003B8550E040E0211531054105510521F4FD
:1006D000288D398D4A8D5B8DAC81B0E00E94180762
:1006E0006DA37EA38FA398A74A815B8170E060E031
:1006F000840E951EA61EB71ED7011A968D929D9246
:10070000AD92BC921D97198112961C9312974D8041
:100710005E8015965C924E9214978F819885B0E01A
:10072000A0E00097A105B10521F48C899D89AE89CF
:10073000BF8924E0569447942A95E1F7712C612CE7
:10074000841B950BA60BB70BBC01CD012DA13EA1BF
:100750004FA158A5621B730B840B950B6419750987
:1007600086099709212F30E050E040E00E94F6060C
:10077000DA01C9010296A11DB11DF7018683978395
:10078000A087B187873FFFE09F07A105B10508F467
:1007900079CF873F9F4FA105B10520F183E0D701B5
:1007A0008C9388A199A1AAA1BBA1F70186879787FD
:1007B000A08BB18B840C951CA61CB71C2DA13EA14F
:1007C0004FA158A5820E931EA41EB51E828A938A3D
:1007D000A48AB58A1182F0925401E092530190E00C
:1007E00080E038CF82E0D7018C938DA19EA1AFA18C
:1007F000B8A5880D991DAA1DBB1DD7CF82E090E03A
:1008000029CF4F925F926F927F928F929F92BF9269
:10081000CF92DF92EF92FF920F931F93CF93DF93CC
:10082000CDB7DEB7EC970FB6F894DEBF0FBECDBFE5
:10083000C0905301D0905401C114D10409F459C19E
:10084000F60111829E012F5C3F4F3CA32BA39C011C
:100850007901F90180812F5F3F4F8032C9F38F32D8
:1008600009F479011DA21EA21FA218A6F70180811A
:10087000A0E2BA2E813208F0E2C0CE0181960E9439
:10088000E8011982009709F408C1EC960FB6F894B4
:10089000DEBF0FBECDBFDF91CF911F910F91FF90B3
:1008A000EF90DF90CF90BF909F908F907F906F9050
:1008B0005F904F900895B192C7C0E30EF11C91E094
:1008C000813208F090E01B969C93CE0181960E94A5
:1008D000E801009709F093C029A13AA12F703327AE
:1008E000F5E0220F331FFA95E1F74DA55EA56FA540
:1008F00078A900E210E0CE0101960E946A01892BDE
:1009000009F0FAC08981882309F443C08C8583FDEE
:1009100013C00BA11CA19E012F5F3F4FD801B8014E
:10092000655F7F4F6A177B0709F470C0F901419139
:100930009F019D914917B1F309A11AA10F5F1F4FA4
:1009400041F18DA59EA5AFA5B8A90097A105B10558
:1009500001F198012F703327232B09F04DC08090AF
:100960005301909054010196A11DB11D8DA79EA722
:10097000AFA7B8AB69A57AA58BA59CA5F4016115B5
:1009800071058105910569F484819581081719071E
:1009900098F1EBA1FCA183858823A9F183E090E085
:1009A00074CF2281E22FE150FF0BAF019801E4E008
:1009B00036952795EA95E1F724233523232BE1F497
:1009C0000E942F02623071058105910508F494C0E0
:1009D000F40146805780608471846415750586052E
:1009E0009705B8F669A77AA78BA79CA70E94BD01B7
:1009F0006DA77EA78FA798AB1AA309A36DCF8330ED
:100A0000910539F242CF84E090E03FCFF801938521
:100A1000911143C084FFF7CF8D899E89B0E0A0E09B
:100A2000DC01992788274B8D5C8D70E060E0842B7A
:100A3000952BA62BB72B8DA39EA3AFA3B8A7ABA1D5
:100A4000BCA1FD01CD010B968E179F0709F033CF96
:100A500020E0E0E098E031E03E0FEE0DFF2DF11DCB
:100A60008081813208F429CF8F3209F426CF8E326B
:100A700009F445C0291708F020CF4FE9480F4A3143
:100A800008F48052FD01E20FF11D8083892F91E06F
:100A9000920F292FE32F982FDECF8981882309F425
:100AA0007DCF8C8584FD7ACF8D899E89B0E0A0E0D2
:100AB000DC01992788274B8D5C8D70E060E0842BEA
:100AC000952BA62BB72BF601868F978FA0A3B1A3EA
:100AD0008D8D9E8DAF8DB8A1828F938FA48FB58F92
:100AE000168A178A108E118E81E0818390E080E053
:100AF000CCCE86E090E0C9CE81E090E0C6CE9830C2
:100B000009F0DBCE8BE0C5CF4F925F926F927F9260
:100B10008F929F92AF92BF92CF92DF92EF92FF920D
:100B20000F931F93CF93DF934C017B015A01C09128
:100B30005301D0915401FA011182108286E090E0B5
:100B4000209709F495C0898180FFAEC08A8D9B8D66
:100B5000AC8DBD8D4E895F89688D798D841B950B19
:100B6000A60BB70BA70170E060E084179507A607F6
:100B7000B70708F47C013401412C82E0582E72C082
:100B80008E899F89A88DB98DAC01BD0151706627F2
:100B90007727452B462B472BA1F5DA80DA94AC0159
:100BA000BD0129E076956795579547952A95D1F728
:100BB000D42299F4892B8A2B8B2B09F06AC06E8D75
:100BC0007F8D88A199A1623071058105910508F496
:100BD00067C06AA37BA38CA39DA36AA17BA18CA100
:100BE0009DA10E94BD01611571058105910509F462
:100BF00057C06D0D711D811D911D6EA37FA388A728
:100C000099A72E893F893170C201821B930B67011E
:100C10008E159F0508F46C014EA15FA168A579A50A
:100C2000C3018114910411F480E090E086010E94D8
:100C30006A01892BA9F58E899F89A88DB98D8C0DA4
:100C40009D1DA11DB11D8E8B9F8BA88FB98F6C0C24
:100C50007D1CEC18FD08F50180819181C80ED91E1C
:100C6000D182C082E114F10409F08ACF90E080E0E3
:100C7000DF91CF911F910F91FF90EF90DF90CF9078
:100C8000BF90AF909F908F907F906F905F904F90AC
:100C900008956AA17BA18CA19DA10E942F0293CFF0
:100CA000198281E090E0E4CF85E090E0E1CF549AB2
:100CB000239A259A229A2A9A2C9A089502D05C980F
:100CC00001C05C9A8FEF98E087FD2B9A87FF2B98E5
:100CD000880F1C9983952D9A2D989A95A9F70895B8
:100CE000FB0183E080935700E8958091570080FDD9
:100CF000FCCF81E180935700E89508950F921F92F1
:100D0000FB01DA0190E40D901D9081E08093570083
:100D1000E89532969A95B9F7FB0185E080935700E4
:100D2000E8958091570080FDFCCF81E180935700CA
:100D3000E8951F900F9008950E9453008EE091E077
:100D4000909396018093950180E091E090939401B7
:100D5000809393010E94B6008CE191E00E944807C5
:100D600085E591E00E94ED029093920180939101BC
:100D7000892B21F080E291E00E9448078DE291E00A
:100D80000E9401049093920180939101892B21F09C
:100D900087E391E00E9448074FE751E060E170E08F
:100DA00081E891E00E9484059093920180939101E3
:100DB000892B21F086E491E00E94480780919101FF
:100DC00090919201892B79F480917F01909180011B
:100DD000892B49F081E891E09F938F930E9432071D
:100DE0000F900F90D9CF90E080E00895A1E21A2EE5
:100DF000AA1BBB1BFD010DC0AA1FBB1FEE1FFF1FBF
:100E0000A217B307E407F50720F0A21BB30BE40B0E
:100E1000F50B661F771F881F991F1A9469F7609555
:100E20007095809590959B01AC01BD01CF0108950F
:100E30000E942307A59F900DB49F900DA49F800D45
:100E4000911D11240895A29FB001B39FC001A39FDB
:100E5000700D811D1124911DB29F700D811D1124F3
:100E6000911D0895A0E0B0E0E8E3F7E00C94FF09DD
:100E7000AE014B5F5F4FFA0161917191AF018091BB
:100E80009501909196010E947807E2E00C941B0A6C
:100E90000F931F93CF93DF93E0919501F09196010B
:100EA000238121FF1BC08C01D0E0C0E0F8018191BB
:100EB0008F016091950170919601DB011896ED917B
:100EC000FC911997882331F00995892B79F3DFEF8D
:100ED000CFEFECCF8AE00995892B19F08FEF9FEFC8
:100EE00002C08D2F9C2FDF91CF911F910F910895FC
:100EF000ACE0B0E0EEE7F7E00C94EF096C017B01A9
:100F00008A01FC0117821682838181FFBEC1CE0156
:100F100001964C01F6019381F70193FD859193FFB2
:100F200081917F01882309F4ACC1853239F493FDA6
:100F3000859193FF81917F01853229F4B60190E07C
:100F40000E946109E7CF512C312C20E02032A0F41F
:100F50008B3269F030F4803259F0833269F42061C9
:100F60002CC08D3239F0803339F4216026C02260E4
:100F7000246023C0286021C027FD27C030ED380F32
:100F80003A3078F426FF06C0FAE05F9E300D112457
:100F9000532E13C08AE0389E300D1124332E206268
:100FA0000CC08E3221F426FD6CC1206406C08C3644
:100FB00011F4206802C0883641F4F70193FD859151
:100FC00093FF81917F018111C1CF982F9F7D95540F
:100FD000933028F40C5F1F4F9FE399830DC0833635
:100FE00031F0833771F0833509F05BC022C0F8011E
:100FF000808189830E5F1F4F44244394512C5401F8
:1010000015C03801F2E06F0E711CF801A080B180AC
:1010100026FF03C0652D70E002C06FEF7FEFC501B2
:101020002C870E9456092C0183012C852F77222EB4
:1010300017C03801F2E06F0E711CF801A080B1807A
:1010400026FF03C0652D70E002C06FEF7FEFC50182
:101050002C870E944B092C012C852068222E8301AD
:1010600023FC1BC0832D90E048165906B0F4B6014E
:1010700080E290E00E9461093A94F4CFF50127FCE8
:10108000859127FE81915F01B60190E00E94610980
:1010900031103A94F1E04F1A51084114510471F79C
:1010A000E6C0843611F0893639F5F80127FF07C00C
:1010B00060817181828193810C5F1F4F08C06081C4
:1010C0007181072E000C880B990B0E5F1F4F2F7636
:1010D000722E97FF09C090958095709561957F4F0E
:1010E0008F4F9F4F2068722E2AE030E0A4010E94AB
:1010F0009109A82EA81844C0853729F42F7EB22E56
:101100002AE030E025C0F22FF97FBF2E8F36C1F0E4
:1011100018F4883579F0B5C0803719F0883721F098
:10112000B0C02F2F2061B22EB4FE0DC08B2D846075
:10113000B82E09C024FF0AC09F2F9660B92E06C0A2
:1011400028E030E005C020E130E002C020E132E0DC
:10115000F801B7FE07C060817181828193810C5FC5
:101160001F4F06C06081718180E090E00E5F1F4FCD
:10117000A4010E949109A82EA818FB2DFF777F2EAD
:1011800076FE0BC0372D3E7FA51450F474FE0AC0C6
:1011900072FC08C0372D3E7E05C0BA2C372D03C027
:1011A000BA2C01C0B52C34FF0DC0FE01EA0DF11DB3
:1011B0008081803311F4397E09C032FF06C0B394B8
:1011C000B39404C0832F867809F0B39433FD13C021
:1011D00030FF06C0B31498F43A0C532C5B1810C0BF
:1011E000B31470F4B60180E290E03C870E9461097C
:1011F000B3943C85F5CFB31418F43B1802C05A2CB5
:10120000312C34FF12C0B60180E390E03C870E948D
:1012100061093C8532FF17C031FD03C088E790E0CB
:1012200002C088E590E0B6010CC0832F867859F0A3
:1012300031FF02C08BE201C080E237FD8DE2B601D2
:1012400090E00E946109A51438F4B60180E390E0B3
:101250000E9461095A94F7CFAA94F401EA0DF11D96
:101260008081B60190E00E946109A110F5CF332082
:1012700009F450CEB60180E290E00E9461093A94F0
:10128000F6CFF6018681978102C08FEF9FEF2C96F3
:10129000E2E10C940B0AFC010590615070400110D2
:1012A000D8F7809590958E0F9F1F0895FC0161508F
:1012B000704001900110D8F7809590958E0F9F1F78
:1012C00008950F931F93CF93DF93182F092FEB01EE
:1012D0008B8181FD03C08FEF9FEF1EC082FF0FC087
:1012E0002E813F818C819D812817390774F4E88114
:1012F000F981CF01019699838883108306C0E88520
:10130000F985812F0995892B31F78E819F8101966F
:101310009F838E83812F902FDF91CF911F910F910B
:101320000895FA01AA27283051F1203181F1E8947B
:101330006F936E7F6E5F7F4F8F4F9F4FAF4FB1E0C8
:101340003ED0B4E03CD0670F781F891F9A1FA11DC3
:10135000680F791F8A1F911DA11D6A0F711D811DC4
:10136000911DA11D20D009F468943F912AE0269F89
:1013700011243019305D3193DEF6CF010895462FE8
:101380004770405D4193B3E00FD0C9F7F6CF462FC9
:101390004F70405D4A3318F0495D31FD4052419332
:1013A00002D0A9F7EACFB4E0A695979587957795EF
:1013B0006795BA95C9F700976105710508959B0176
:1013C000AC010A2E06945795479537952795BA95FF
:1013D000C9F7620F731F841F951FA01D08952F92D8
:1013E0003F924F925F926F927F928F929F92AF92B5
:1013F000BF92CF92DF92EF92FF920F931F93CF9302
:10140000DF93CDB7DEB7CA1BDB0B0FB6F894DEBF98
:101410000FBECDBF09942A88398848885F846E84BE
:101420007D848C849B84AA84B984C884DF80EE8008
:10143000FD800C811B81AA81B981CE0FD11D0FB611
:10144000F894DEBF0FBECDBFED010895F894FFCF35
:101450000000000100000000000073000000000018
:1014600000020000000064000000000048657900F0
:101470004D6F756E74206661696C65640048656CBB
:101480006C6F2E7478740046696C65204E6F742002
:10149000666F756E640052656164206661696C6593
:0214A0006400E6
:00000001FF
